{
  "_format": "hh-sol-artifact-1",
  "contractName": "Donation",
  "sourceName": "contracts/Donation.sol",
  "abi": [
    {
      "inputs": [],
      "stateMutability": "nonpayable",
      "type": "constructor"
    },
    {
      "inputs": [
        {
          "internalType": "address",
          "name": "",
          "type": "address"
        }
      ],
      "name": "donationForAddress",
      "outputs": [
        {
          "internalType": "uint256",
          "name": "amount",
          "type": "uint256"
        }
      ],
      "stateMutability": "view",
      "type": "function"
    },
    {
      "inputs": [
        {
          "internalType": "uint256",
          "name": "",
          "type": "uint256"
        }
      ],
      "name": "donators",
      "outputs": [
        {
          "internalType": "address",
          "name": "",
          "type": "address"
        }
      ],
      "stateMutability": "view",
      "type": "function"
    },
    {
      "inputs": [],
      "name": "gatherDonation",
      "outputs": [],
      "stateMutability": "payable",
      "type": "function"
    },
    {
      "inputs": [],
      "name": "getDonators",
      "outputs": [
        {
          "internalType": "address[]",
          "name": "",
          "type": "address[]"
        }
      ],
      "stateMutability": "view",
      "type": "function"
    },
    {
      "inputs": [],
      "name": "owner",
      "outputs": [
        {
          "internalType": "address payable",
          "name": "",
          "type": "address"
        }
      ],
      "stateMutability": "view",
      "type": "function"
    },
    {
      "inputs": [
        {
          "internalType": "address",
          "name": "recevier",
          "type": "address"
        }
      ],
      "name": "transferToAddress",
      "outputs": [],
      "stateMutability": "nonpayable",
      "type": "function"
    },
    {
      "inputs": [],
      "name": "transferToOwner",
      "outputs": [],
      "stateMutability": "nonpayable",
      "type": "function"
    }
  ],
  "bytecode": "0x608060405234801561001057600080fd5b50336000806101000a81548173ffffffffffffffffffffffffffffffffffffffff021916908373ffffffffffffffffffffffffffffffffffffffff160217905550610864806100606000396000f3fe6080604052600436106100705760003560e01c80638da5cb5b1161004e5780638da5cb5b146100bf578063ac62f566146100ea578063afc4d28e14610127578063bf1482fa1461016457610070565b806306883ad3146100755780632d90ae941461007f57806371d2b98714610096575b600080fd5b61007d61018f565b005b34801561008b57600080fd5b50610094610274565b005b3480156100a257600080fd5b506100bd60048036038101906100b89190610549565b610335565b005b3480156100cb57600080fd5b506100d46103d7565b6040516100e19190610597565b60405180910390f35b3480156100f657600080fd5b50610111600480360381019061010c91906105e8565b6103fb565b60405161011e9190610624565b60405180910390f35b34801561013357600080fd5b5061014e60048036038101906101499190610549565b61043a565b60405161015b919061064e565b60405180910390f35b34801561017057600080fd5b50610179610458565b6040516101869190610727565b60405180910390f35b66038d7ea4c680003410156101a357600080fd5b6001339080600181540180825580915050600190039060005260206000200160009091909190916101000a81548173ffffffffffffffffffffffffffffffffffffffff021916908373ffffffffffffffffffffffffffffffffffffffff160217905550670de0b6b3a76400003461021a91906107a7565b600260003373ffffffffffffffffffffffffffffffffffffffff1673ffffffffffffffffffffffffffffffffffffffff168152602001908152602001600020600001600082825461026b91906107d8565b92505081905550565b60008054906101000a900473ffffffffffffffffffffffffffffffffffffffff1673ffffffffffffffffffffffffffffffffffffffff163373ffffffffffffffffffffffffffffffffffffffff16146102cc57600080fd5b60008054906101000a900473ffffffffffffffffffffffffffffffffffffffff1673ffffffffffffffffffffffffffffffffffffffff166108fc479081150290604051600060405180830381858888f19350505050158015610332573d6000803e3d6000fd5b50565b60008054906101000a900473ffffffffffffffffffffffffffffffffffffffff1673ffffffffffffffffffffffffffffffffffffffff163373ffffffffffffffffffffffffffffffffffffffff161461038d57600080fd5b8073ffffffffffffffffffffffffffffffffffffffff166108fc479081150290604051600060405180830381858888f193505050501580156103d3573d6000803e3d6000fd5b5050565b60008054906101000a900473ffffffffffffffffffffffffffffffffffffffff1681565b6001818154811061040b57600080fd5b906000526020600020016000915054906101000a900473ffffffffffffffffffffffffffffffffffffffff1681565b60026020528060005260406000206000915090508060000154905081565b606060018054806020026020016040519081016040528092919081815260200182805480156104dc57602002820191906000526020600020905b8160009054906101000a900473ffffffffffffffffffffffffffffffffffffffff1673ffffffffffffffffffffffffffffffffffffffff1681526020019060010190808311610492575b5050505050905090565b600080fd5b600073ffffffffffffffffffffffffffffffffffffffff82169050919050565b6000610516826104eb565b9050919050565b6105268161050b565b811461053157600080fd5b50565b6000813590506105438161051d565b92915050565b60006020828403121561055f5761055e6104e6565b5b600061056d84828501610534565b91505092915050565b6000610581826104eb565b9050919050565b61059181610576565b82525050565b60006020820190506105ac6000830184610588565b92915050565b6000819050919050565b6105c5816105b2565b81146105d057600080fd5b50565b6000813590506105e2816105bc565b92915050565b6000602082840312156105fe576105fd6104e6565b5b600061060c848285016105d3565b91505092915050565b61061e8161050b565b82525050565b60006020820190506106396000830184610615565b92915050565b610648816105b2565b82525050565b6000602082019050610663600083018461063f565b92915050565b600081519050919050565b600082825260208201905092915050565b6000819050602082019050919050565b61069e8161050b565b82525050565b60006106b08383610695565b60208301905092915050565b6000602082019050919050565b60006106d482610669565b6106de8185610674565b93506106e983610685565b8060005b8381101561071a57815161070188826106a4565b975061070c836106bc565b9250506001810190506106ed565b5085935050505092915050565b6000602082019050818103600083015261074181846106c9565b905092915050565b7f4e487b7100000000000000000000000000000000000000000000000000000000600052601260045260246000fd5b7f4e487b7100000000000000000000000000000000000000000000000000000000600052601160045260246000fd5b60006107b2826105b2565b91506107bd836105b2565b9250826107cd576107cc610749565b5b828204905092915050565b60006107e3826105b2565b91506107ee836105b2565b9250827fffffffffffffffffffffffffffffffffffffffffffffffffffffffffffffffff0382111561082357610822610778565b5b82820190509291505056fea26469706673582212207a9083498db2dbf5d519d4466daec8b0a5fb2ce244898ec4d91a52011f6518ae64736f6c634300080a0033",
  "linkReferences": {},
  "deployedLinkReferences": {}
}