{
  "_format": "hh-sol-artifact-1",
  "contractName": "Donation",
  "sourceName": "contracts/Donation.sol",
  "abi": [
    {
      "inputs": [],
      "stateMutability": "nonpayable",
      "type": "constructor"
    },
    {
      "inputs": [
        {
          "internalType": "address",
          "name": "",
          "type": "address"
        }
      ],
      "name": "donationForAddress",
      "outputs": [
        {
          "internalType": "uint256",
          "name": "amount",
          "type": "uint256"
        }
      ],
      "stateMutability": "view",
      "type": "function"
    },
    {
      "inputs": [
        {
          "internalType": "uint256",
          "name": "",
          "type": "uint256"
        }
      ],
      "name": "donators",
      "outputs": [
        {
          "internalType": "address",
          "name": "",
          "type": "address"
        }
      ],
      "stateMutability": "view",
      "type": "function"
    },
    {
      "inputs": [],
      "name": "gatherDonation",
      "outputs": [],
      "stateMutability": "payable",
      "type": "function"
    },
    {
      "inputs": [
        {
          "internalType": "address",
          "name": "donater",
          "type": "address"
        }
      ],
      "name": "getDonationValueForAddress",
      "outputs": [
        {
          "internalType": "uint256",
          "name": "",
          "type": "uint256"
        }
      ],
      "stateMutability": "view",
      "type": "function"
    },
    {
      "inputs": [],
      "name": "getDonators",
      "outputs": [
        {
          "internalType": "address[]",
          "name": "",
          "type": "address[]"
        }
      ],
      "stateMutability": "view",
      "type": "function"
    },
    {
      "inputs": [],
      "name": "owner",
      "outputs": [
        {
          "internalType": "address payable",
          "name": "",
          "type": "address"
        }
      ],
      "stateMutability": "view",
      "type": "function"
    },
    {
      "inputs": [
        {
          "internalType": "address",
          "name": "recevier",
          "type": "address"
        }
      ],
      "name": "transferToAddress",
      "outputs": [],
      "stateMutability": "nonpayable",
      "type": "function"
    },
    {
      "inputs": [],
      "name": "transferToOwner",
      "outputs": [],
      "stateMutability": "nonpayable",
      "type": "function"
    }
  ],
  "bytecode": "0x608060405234801561001057600080fd5b50336000806101000a81548173ffffffffffffffffffffffffffffffffffffffff021916908373ffffffffffffffffffffffffffffffffffffffff160217905550610878806100606000396000f3fe60806040526004361061007b5760003560e01c8063ac62f5661161004e578063ac62f566146100f5578063afc4d28e14610132578063b40b492c1461016f578063bf1482fa146101ac5761007b565b806306883ad3146100805780632d90ae941461008a57806371d2b987146100a15780638da5cb5b146100ca575b600080fd5b6100886101d7565b005b34801561009657600080fd5b5061009f6102a9565b005b3480156100ad57600080fd5b506100c860048036038101906100c39190610591565b61036a565b005b3480156100d657600080fd5b506100df61040c565b6040516100ec91906106b0565b60405180910390f35b34801561010157600080fd5b5061011c600480360381019061011791906105ba565b610430565b6040516101299190610695565b60405180910390f35b34801561013e57600080fd5b5061015960048036038101906101549190610591565b61046f565b60405161016691906106ed565b60405180910390f35b34801561017b57600080fd5b5061019660048036038101906101919190610591565b61048d565b6040516101a391906106ed565b60405180910390f35b3480156101b857600080fd5b506101c16104d9565b6040516101ce91906106cb565b60405180910390f35b66038d7ea4c680003410156101eb57600080fd5b6001339080600181540180825580915050600190039060005260206000200160009091909190916101000a81548173ffffffffffffffffffffffffffffffffffffffff021916908373ffffffffffffffffffffffffffffffffffffffff16021790555034600260003373ffffffffffffffffffffffffffffffffffffffff1673ffffffffffffffffffffffffffffffffffffffff16815260200190815260200160002060000160008282546102a09190610741565b92505081905550565b60008054906101000a900473ffffffffffffffffffffffffffffffffffffffff1673ffffffffffffffffffffffffffffffffffffffff163373ffffffffffffffffffffffffffffffffffffffff161461030157600080fd5b60008054906101000a900473ffffffffffffffffffffffffffffffffffffffff1673ffffffffffffffffffffffffffffffffffffffff166108fc479081150290604051600060405180830381858888f19350505050158015610367573d6000803e3d6000fd5b50565b60008054906101000a900473ffffffffffffffffffffffffffffffffffffffff1673ffffffffffffffffffffffffffffffffffffffff163373ffffffffffffffffffffffffffffffffffffffff16146103c257600080fd5b8073ffffffffffffffffffffffffffffffffffffffff166108fc479081150290604051600060405180830381858888f19350505050158015610408573d6000803e3d6000fd5b5050565b60008054906101000a900473ffffffffffffffffffffffffffffffffffffffff1681565b6001818154811061044057600080fd5b906000526020600020016000915054906101000a900473ffffffffffffffffffffffffffffffffffffffff1681565b60026020528060005260406000206000915090508060000154905081565b6000600260008373ffffffffffffffffffffffffffffffffffffffff1673ffffffffffffffffffffffffffffffffffffffff168152602001908152602001600020600001549050919050565b6060600180548060200260200160405190810160405280929190818152602001828054801561055d57602002820191906000526020600020905b8160009054906101000a900473ffffffffffffffffffffffffffffffffffffffff1673ffffffffffffffffffffffffffffffffffffffff1681526020019060010190808311610513575b5050505050905090565b60008135905061057681610814565b92915050565b60008135905061058b8161082b565b92915050565b6000602082840312156105a357600080fd5b60006105b184828501610567565b91505092915050565b6000602082840312156105cc57600080fd5b60006105da8482850161057c565b91505092915050565b60006105ef838361060a565b60208301905092915050565b610604816107a9565b82525050565b61061381610797565b82525050565b61062281610797565b82525050565b600061063382610718565b61063d8185610730565b935061064883610708565b8060005b8381101561067957815161066088826105e3565b975061066b83610723565b92505060018101905061064c565b5085935050505092915050565b61068f816107db565b82525050565b60006020820190506106aa6000830184610619565b92915050565b60006020820190506106c560008301846105fb565b92915050565b600060208201905081810360008301526106e58184610628565b905092915050565b60006020820190506107026000830184610686565b92915050565b6000819050602082019050919050565b600081519050919050565b6000602082019050919050565b600082825260208201905092915050565b600061074c826107db565b9150610757836107db565b9250827fffffffffffffffffffffffffffffffffffffffffffffffffffffffffffffffff0382111561078c5761078b6107e5565b5b828201905092915050565b60006107a2826107bb565b9050919050565b60006107b4826107bb565b9050919050565b600073ffffffffffffffffffffffffffffffffffffffff82169050919050565b6000819050919050565b7f4e487b7100000000000000000000000000000000000000000000000000000000600052601160045260246000fd5b61081d81610797565b811461082857600080fd5b50565b610834816107db565b811461083f57600080fd5b5056fea264697066735822122055cb57b88456bf468e26ac473392844b6dac4b4948efa3f8611c6e0e33ea1f7c64736f6c63430008040033",
  "linkReferences": {},
  "deployedLinkReferences": {}
}