{
  "_format": "hh-sol-artifact-1",
  "contractName": "Donation",
  "sourceName": "contracts/Donation.sol",
  "abi": [
    {
      "inputs": [],
      "stateMutability": "nonpayable",
      "type": "constructor"
    },
    {
      "inputs": [],
      "name": "gatherDonation",
      "outputs": [],
      "stateMutability": "payable",
      "type": "function"
    },
    {
      "inputs": [
        {
          "internalType": "address",
          "name": "donater",
          "type": "address"
        }
      ],
      "name": "getDonationValueForAddress",
      "outputs": [
        {
          "internalType": "uint256",
          "name": "",
          "type": "uint256"
        }
      ],
      "stateMutability": "view",
      "type": "function"
    },
    {
      "inputs": [],
      "name": "getDonators",
      "outputs": [
        {
          "internalType": "address[]",
          "name": "",
          "type": "address[]"
        }
      ],
      "stateMutability": "view",
      "type": "function"
    },
    {
      "inputs": [],
      "name": "owner",
      "outputs": [
        {
          "internalType": "address payable",
          "name": "",
          "type": "address"
        }
      ],
      "stateMutability": "view",
      "type": "function"
    },
    {
      "inputs": [
        {
          "internalType": "address",
          "name": "recevier",
          "type": "address"
        }
      ],
      "name": "transferToAddress",
      "outputs": [],
      "stateMutability": "nonpayable",
      "type": "function"
    },
    {
      "inputs": [],
      "name": "transferToOwner",
      "outputs": [],
      "stateMutability": "nonpayable",
      "type": "function"
    }
  ],
  "bytecode": "0x608060405234801561001057600080fd5b50336000806101000a81548173ffffffffffffffffffffffffffffffffffffffff021916908373ffffffffffffffffffffffffffffffffffffffff1602179055506106fc806100606000396000f3fe6080604052600436106100555760003560e01c806306883ad31461005a5780632d90ae941461006457806371d2b9871461007b5780638da5cb5b146100a4578063b40b492c146100cf578063bf1482fa1461010c575b600080fd5b610062610137565b005b34801561007057600080fd5b50610079610209565b005b34801561008757600080fd5b506100a2600480360381019061009d919061047f565b6102ca565b005b3480156100b057600080fd5b506100b961036c565b6040516100c6919061054b565b60405180910390f35b3480156100db57600080fd5b506100f660048036038101906100f1919061047f565b610390565b6040516101039190610588565b60405180910390f35b34801561011857600080fd5b506101216103dc565b60405161012e9190610566565b60405180910390f35b66038d7ea4c6800034101561014b57600080fd5b6001339080600181540180825580915050600190039060005260206000200160009091909190916101000a81548173ffffffffffffffffffffffffffffffffffffffff021916908373ffffffffffffffffffffffffffffffffffffffff16021790555034600260003373ffffffffffffffffffffffffffffffffffffffff1673ffffffffffffffffffffffffffffffffffffffff168152602001908152602001600020600001600082825461020091906105dc565b92505081905550565b60008054906101000a900473ffffffffffffffffffffffffffffffffffffffff1673ffffffffffffffffffffffffffffffffffffffff163373ffffffffffffffffffffffffffffffffffffffff161461026157600080fd5b60008054906101000a900473ffffffffffffffffffffffffffffffffffffffff1673ffffffffffffffffffffffffffffffffffffffff166108fc479081150290604051600060405180830381858888f193505050501580156102c7573d6000803e3d6000fd5b50565b60008054906101000a900473ffffffffffffffffffffffffffffffffffffffff1673ffffffffffffffffffffffffffffffffffffffff163373ffffffffffffffffffffffffffffffffffffffff161461032257600080fd5b8073ffffffffffffffffffffffffffffffffffffffff166108fc479081150290604051600060405180830381858888f19350505050158015610368573d6000803e3d6000fd5b5050565b60008054906101000a900473ffffffffffffffffffffffffffffffffffffffff1681565b6000600260008373ffffffffffffffffffffffffffffffffffffffff1673ffffffffffffffffffffffffffffffffffffffff168152602001908152602001600020600001549050919050565b6060600180548060200260200160405190810160405280929190818152602001828054801561046057602002820191906000526020600020905b8160009054906101000a900473ffffffffffffffffffffffffffffffffffffffff1673ffffffffffffffffffffffffffffffffffffffff1681526020019060010190808311610416575b5050505050905090565b600081359050610479816106af565b92915050565b60006020828403121561049157600080fd5b600061049f8482850161046a565b91505092915050565b60006104b483836104cf565b60208301905092915050565b6104c981610644565b82525050565b6104d881610632565b82525050565b60006104e9826105b3565b6104f381856105cb565b93506104fe836105a3565b8060005b8381101561052f57815161051688826104a8565b9750610521836105be565b925050600181019050610502565b5085935050505092915050565b61054581610676565b82525050565b600060208201905061056060008301846104c0565b92915050565b6000602082019050818103600083015261058081846104de565b905092915050565b600060208201905061059d600083018461053c565b92915050565b6000819050602082019050919050565b600081519050919050565b6000602082019050919050565b600082825260208201905092915050565b60006105e782610676565b91506105f283610676565b9250827fffffffffffffffffffffffffffffffffffffffffffffffffffffffffffffffff0382111561062757610626610680565b5b828201905092915050565b600061063d82610656565b9050919050565b600061064f82610656565b9050919050565b600073ffffffffffffffffffffffffffffffffffffffff82169050919050565b6000819050919050565b7f4e487b7100000000000000000000000000000000000000000000000000000000600052601160045260246000fd5b6106b881610632565b81146106c357600080fd5b5056fea264697066735822122006a3ebe975af4a48f0d8898149b85f06d5391ba0f6567e5e6f355173fd6222b864736f6c63430008040033",
  "linkReferences": {},
  "deployedLinkReferences": {}
}