{
  "_format": "hh-sol-artifact-1",
  "contractName": "Donation",
  "sourceName": "contracts/Donation.sol",
  "abi": [
    {
      "inputs": [],
      "stateMutability": "nonpayable",
      "type": "constructor"
    },
    {
      "inputs": [
        {
          "internalType": "address",
          "name": "",
          "type": "address"
        }
      ],
      "name": "donationForAddress",
      "outputs": [
        {
          "internalType": "uint256",
          "name": "amount",
          "type": "uint256"
        }
      ],
      "stateMutability": "view",
      "type": "function"
    },
    {
      "inputs": [
        {
          "internalType": "uint256",
          "name": "",
          "type": "uint256"
        }
      ],
      "name": "donators",
      "outputs": [
        {
          "internalType": "address",
          "name": "",
          "type": "address"
        }
      ],
      "stateMutability": "view",
      "type": "function"
    },
    {
      "inputs": [],
      "name": "gatherDonation",
      "outputs": [],
      "stateMutability": "payable",
      "type": "function"
    },
    {
      "inputs": [
        {
          "internalType": "address",
          "name": "donater",
          "type": "address"
        }
      ],
      "name": "getDonationValueForAddress",
      "outputs": [
        {
          "internalType": "uint256",
          "name": "",
          "type": "uint256"
        }
      ],
      "stateMutability": "view",
      "type": "function"
    },
    {
      "inputs": [],
      "name": "getDonators",
      "outputs": [
        {
          "internalType": "address[]",
          "name": "",
          "type": "address[]"
        }
      ],
      "stateMutability": "view",
      "type": "function"
    },
    {
      "inputs": [],
      "name": "owner",
      "outputs": [
        {
          "internalType": "address payable",
          "name": "",
          "type": "address"
        }
      ],
      "stateMutability": "view",
      "type": "function"
    },
    {
      "inputs": [
        {
          "internalType": "address",
          "name": "recevier",
          "type": "address"
        }
      ],
      "name": "transferToAddress",
      "outputs": [],
      "stateMutability": "nonpayable",
      "type": "function"
    },
    {
      "inputs": [],
      "name": "transferToOwner",
      "outputs": [],
      "stateMutability": "nonpayable",
      "type": "function"
    }
  ],
  "bytecode": "0x608060405234801561001057600080fd5b50336000806101000a81548173ffffffffffffffffffffffffffffffffffffffff021916908373ffffffffffffffffffffffffffffffffffffffff160217905550610885806100606000396000f3fe60806040526004361061007b5760003560e01c8063ac62f5661161004e578063ac62f566146100f5578063afc4d28e14610132578063b40b492c1461016f578063bf1482fa146101ac5761007b565b806306883ad3146100805780632d90ae941461008a57806371d2b987146100a15780638da5cb5b146100ca575b600080fd5b6100886101d7565b005b34801561009657600080fd5b5061009f6102a9565b005b3480156100ad57600080fd5b506100c860048036038101906100c391906105ca565b61036a565b005b3480156100d657600080fd5b506100df61040c565b6040516100ec9190610618565b60405180910390f35b34801561010157600080fd5b5061011c60048036038101906101179190610669565b610430565b60405161012991906106a5565b60405180910390f35b34801561013e57600080fd5b50610159600480360381019061015491906105ca565b61046f565b60405161016691906106cf565b60405180910390f35b34801561017b57600080fd5b50610196600480360381019061019191906105ca565b61048d565b6040516101a391906106cf565b60405180910390f35b3480156101b857600080fd5b506101c16104d9565b6040516101ce91906107a8565b60405180910390f35b66038d7ea4c680003410156101eb57600080fd5b6001339080600181540180825580915050600190039060005260206000200160009091909190916101000a81548173ffffffffffffffffffffffffffffffffffffffff021916908373ffffffffffffffffffffffffffffffffffffffff16021790555034600260003373ffffffffffffffffffffffffffffffffffffffff1673ffffffffffffffffffffffffffffffffffffffff16815260200190815260200160002060000160008282546102a091906107f9565b92505081905550565b60008054906101000a900473ffffffffffffffffffffffffffffffffffffffff1673ffffffffffffffffffffffffffffffffffffffff163373ffffffffffffffffffffffffffffffffffffffff161461030157600080fd5b60008054906101000a900473ffffffffffffffffffffffffffffffffffffffff1673ffffffffffffffffffffffffffffffffffffffff166108fc479081150290604051600060405180830381858888f19350505050158015610367573d6000803e3d6000fd5b50565b60008054906101000a900473ffffffffffffffffffffffffffffffffffffffff1673ffffffffffffffffffffffffffffffffffffffff163373ffffffffffffffffffffffffffffffffffffffff16146103c257600080fd5b8073ffffffffffffffffffffffffffffffffffffffff166108fc479081150290604051600060405180830381858888f19350505050158015610408573d6000803e3d6000fd5b5050565b60008054906101000a900473ffffffffffffffffffffffffffffffffffffffff1681565b6001818154811061044057600080fd5b906000526020600020016000915054906101000a900473ffffffffffffffffffffffffffffffffffffffff1681565b60026020528060005260406000206000915090508060000154905081565b6000600260008373ffffffffffffffffffffffffffffffffffffffff1673ffffffffffffffffffffffffffffffffffffffff168152602001908152602001600020600001549050919050565b6060600180548060200260200160405190810160405280929190818152602001828054801561055d57602002820191906000526020600020905b8160009054906101000a900473ffffffffffffffffffffffffffffffffffffffff1673ffffffffffffffffffffffffffffffffffffffff1681526020019060010190808311610513575b5050505050905090565b600080fd5b600073ffffffffffffffffffffffffffffffffffffffff82169050919050565b60006105978261056c565b9050919050565b6105a78161058c565b81146105b257600080fd5b50565b6000813590506105c48161059e565b92915050565b6000602082840312156105e0576105df610567565b5b60006105ee848285016105b5565b91505092915050565b60006106028261056c565b9050919050565b610612816105f7565b82525050565b600060208201905061062d6000830184610609565b92915050565b6000819050919050565b61064681610633565b811461065157600080fd5b50565b6000813590506106638161063d565b92915050565b60006020828403121561067f5761067e610567565b5b600061068d84828501610654565b91505092915050565b61069f8161058c565b82525050565b60006020820190506106ba6000830184610696565b92915050565b6106c981610633565b82525050565b60006020820190506106e460008301846106c0565b92915050565b600081519050919050565b600082825260208201905092915050565b6000819050602082019050919050565b61071f8161058c565b82525050565b60006107318383610716565b60208301905092915050565b6000602082019050919050565b6000610755826106ea565b61075f81856106f5565b935061076a83610706565b8060005b8381101561079b5781516107828882610725565b975061078d8361073d565b92505060018101905061076e565b5085935050505092915050565b600060208201905081810360008301526107c2818461074a565b905092915050565b7f4e487b7100000000000000000000000000000000000000000000000000000000600052601160045260246000fd5b600061080482610633565b915061080f83610633565b9250827fffffffffffffffffffffffffffffffffffffffffffffffffffffffffffffffff03821115610844576108436107ca565b5b82820190509291505056fea2646970667358221220c4989677c3e8a14cdc4239cebb5e83a20d55ac1a10cc3c6dd3357be9ce6a7a2164736f6c634300080a0033",
  "linkReferences": {},
  "deployedLinkReferences": {}
}